:1000000002EF00F007EF0AF0FF00FF00FF00FF0023
:1010000000002350D8B407EF08F009EF08F019EFFB
:1010100008F02350D96EDA6ADF30E832E832070B85
:10102000246E070E246417EF08F019EF08F072EF32
:1010300008F0000E296E88EF08F02350D96EDA6AA6
:10104000DF30E832E832070B246E010E256E242AC9
:101050002CEF08F0D8902536242E2AEF08F02550E2
:10106000FF0A266E2350D96EDA6ADF50070B020D95
:10107000F350150FD96EDA6ADECF27F0DDCF28F0F6
:1010800027C0D9FF28C0DAFF2650DF16010E296ECF
:1010900088EF08F02350D96EDA6ADF30E832E832A0
:1010A000070B246E010E256E242A59EF08F0D89004
:1010B0002536242E57EF08F02350D96EDA6ADF5018
:1010C000070B020DF350150FD96EDA6ADECF26F04A
:1010D000DDCF27F026C0D9FF27C0DAFF2550DF1269
:1010E00046EF08F02350D96EDA6ADFBC7AEF08F0D9
:1010F0007DEF08F0010E7EEF08F0000E000AD8B474
:101100001DEF08F0010AD8B44AEF08F019EF08F013
:10111000295012002350D8B490EF08F092EF08F055
:10112000A2EF08F02350D96EDA6ADF30E832E832F5
:10113000070B256E070E2564A0EF08F0A2EF08F05C
:10114000FBEF08F0000E2A6E10EF09F02350D96E65
:10115000DA6ADF30E832E832070B256E010E266EC0
:10116000252AB5EF08F0D8902636252EB3EF08F0E3
:101170002650FF0A276E2350D96EDA6ADF50070B1C
:10118000020DF350010FD96EDA6ADECF28F0DDCF01
:1011900029F028C0D9FF29C0DAFF2750DF16010E39
:1011A0002A6E10EF09F02350D96EDA6ADF30E83288
:1011B000E832070B256E010E266E252AE2EF08F0B5
:1011C000D8902636252EE0EF08F02350D96EDA6A43
:1011D000DF50070B020DF350010FD96EDA6ADECF34
:1011E00027F0DDCF28F027C0D9FF28C0DAFF26502E
:1011F000DF12CFEF08F02450256E266A2650000A31
:10120000D8B405EF09F0A2EF08F02550000AD8B4D1
:10121000A6EF08F0010AD8B4D3EF08F0A2EF08F067
:101220002A5012004BEC0AF0210E2B6ECDEC09F087
:10123000396E1F0E2B6ECDEC09F0396E330E316E08
:10124000BB0E306EE00EE82EFED7302EFCD7312ECE
:10125000FAD7210E2B6EEAEC09F0396E1F0E2B6EB9
:10126000EAEC09F0396E330E316EBB0E306EE00ED3
:10127000E82EFED7302EFCD7312EFAD7210E2B6E5A
:10128000CDEC09F0396E1F0E2B6EEAEC09F0396EC9
:10129000330E316EBB0E306EE00EE82EFED7302ED0
:1012A000FCD7312EFAD7210E2B6EEAEC09F0396EFD
:1012B0001F0E2B6ECDEC09F0396E330E316EBB0E66
:1012C000306EE00EE82EFED7302EFCD7312EFAD746
:1012D000210E2B6EB0EC09F0396E1F0E2B6EB0ECA8
:1012E00009F0396E330E316EBB0E306EE00EE82E13
:1012F000FED7302EFCD7312EFAD714EF09F002EFCB
:1013000000F02B50D8B487EF09F089EF09F099EF7E
:1013100009F02B50D96EDA6ADF30E832E832070B79
:101320002C6E070E2C6497EF09F099EF09F09DEFF2
:1013300009F0000E2D6EAEEF09F02BC023F001EC8A
:1013400008F02BC023F02B50D96EDA6A000EDFBEF6
:10135000010E246E8AEC08F0010E2D6E2D50120045
:101360002B50D8A4B6EF09F0B8EF09F0BCEF09F0A4
:10137000000E2D6ECBEF09F0000E2C6E2BC023F06B
:10138000000E246E8AEC08F02B28236E000E246ECB
:101390008AEC08F02D6E2D5012002B50D8A4D3EFFC
:1013A00009F0D5EF09F0D9EF09F0000E2D6EE8EF46
:1013B00009F0000E2C6E2BC023F0010E246E8AEC77
:1013C00008F02B28236E000E246E8AEC08F02D6E98
:1013D0002D5012002B50D8A4F0EF09F0F2EF09F0D5
:1013E000F6EF09F0000E2D6E05EF0AF0010E2C6EDF
:1013F0002BC023F0000E246E8AEC08F02B28236EFD
:10140000010E246E8AEC08F02D6E2D501200740E21
:10141000F66E140EF76E000EF86E00EE01F010EE90
:1014200022F00900F5CFEEFFE550E150FAE100EEC1
:1014300032F0070EEE6AE806FDE1000EF86E0001DC
:1014400012EF09F02E50D8A428EF0AF02AEF0AF084
:101450002EEF0AF0000E2F6E38EF0AF02EC02BF0A0
:1014600081EC09F02F6E2E282B6E81EC09F02F6E87
:101470002F501200890F8A0F8B0F8C0F8D0F800F4A
:10148000810F820F830F840F920F930F940F950F8C
:10149000960F121A020A210E2E6E22EC0AF0396EF5
:1014A0001F0E2E6E22EC0AF0396E1200FF00FF00B4
:020000040030CA
:0E000000FF02191EFF8981FF0FC00FE00F40A5
:00000001FF
