:1000000002EF00F050EF0DF0FF00FF00FF00FF00D7
:10100000003738392F3435362A3132332D43303DCD
:101010002B202020202020202020202020202020C5
:10102000202020202000456D6265646465645F4473
:1010300069706C6F6D610048454C4C4F5F414C4C82
:10104000004C6F6164696E6700256900000035EC33
:101050000EF0290E4A6E010E4B6E140E4C6E980E59
:101060004D6E000E4E6E8EEC0CF05A6E1F0E496ED9
:10107000010E4A6E140E4B6E980E4C6E000E4D6EA5
:1010800057EC0CF05A6E060E526E130E516EAE0EE9
:10109000E82EFED7512EFCD7522EFAD7290E4A6ED3
:1010A000010E4B6E140E4C6E900E4D6E010E4E6E78
:1010B0008EEC0CF05A6E1F0E496E010E4A6E140E25
:1010C0004B6E900E4C6E010E4D6E57EC0CF05A6E3E
:1010D000060E526E130E516EAE0EE82EFED7512E36
:1010E000FCD7522EFAD7290E4A6E010E4B6E140E03
:1010F0004C6E880E4D6E020E4E6E8EEC0CF05A6EDB
:101100001F0E496E010E4A6E140E4B6E880E4C6E09
:10111000020E4D6E57EC0CF05A6E060E526E130E08
:10112000516EAE0EE82EFED7512EFCD7522EFAD7B6
:10113000290E4A6E010E4B6E140E4C6E800E4D6ED3
:10114000030E4E6E8EEC0CF05A6E1F0E496E010EA1
:101150004A6E140E4B6E800E4C6E030E4D6E57ECA5
:101160000CF05A6E060E526E130E516EAE0EE82E35
:10117000FED7512EFCD7522EFAD7290E4A6E010EF9
:101180004B6E140E4C6E780E4D6E040E4E6E8EEC41
:101190000CF05A6E1F0E496E010E4A6E140E4B6E05
:1011A000780E4C6E040E4D6E57EC0CF05A6E060E17
:1011B000526E130E516EAE0EE82EFED7512EFCD796
:1011C000522EFAD729EF08F002EF00F02F50D8B4D2
:1011D000ECEF08F0EEEF08F0FEEF08F02F50D96EBC
:1011E000DA6ADF30E832E832070B306E070E30641F
:1011F000FCEF08F0FEEF08F057EF09F0000E356E37
:101200006DEF09F02F50D96EDA6ADF30E832E8323C
:10121000070B306E010E316E302A11EF09F0D890B5
:101220003136302E0FEF09F03150FF0A326E2F5059
:10123000D96EDA6ADF50070B020DF350150FD96E25
:10124000DA6ADECF33F0DDCF34F033C0D9FF34C0FB
:10125000DAFF3250DF16010E356E6DEF09F02F50B8
:10126000D96EDA6ADF30E832E832070B306E010EF1
:10127000316E302A3EEF09F0D8903136302E3CEFF7
:1012800009F02F50D96EDA6ADF50070B020DF350C8
:10129000150FD96EDA6ADECF32F0DDCF33F032C00F
:1012A000D9FF33C0DAFF3150DF122BEF09F02F5096
:1012B000D96EDA6ADFBC5FEF09F062EF09F0010E68
:1012C00063EF09F0000E000AD8B402EF09F0010A3A
:1012D000D8B42FEF09F0FEEF08F0355012002F5070
:1012E000D8B475EF09F077EF09F087EF09F02F50C8
:1012F000D96EDA6ADF30E832E832070B316E070E5A
:10130000316485EF09F087EF09F0E0EF09F0000E96
:10131000366EF5EF09F02F50D96EDA6ADF30E83219
:10132000E832070B316E010E326E312A9AEF09F066
:10133000D8903236312E98EF09F03250FF0A336ED2
:101340002F50D96EDA6ADF50070B020DF350010FF0
:10135000D96EDA6ADECF34F0DDCF35F034C0D9FF94
:1013600035C0DAFF3350DF16010E366EF5EF09F0A7
:101370002F50D96EDA6ADF30E832E832070B316E6F
:10138000010E326E312AC7EF09F0D8903236312E75
:10139000C5EF09F02F50D96EDA6ADF50070B020D46
:1013A000F350010FD96EDA6ADECF33F0DDCF34F0BF
:1013B00033C0D9FF34C0DAFF3250DF12B4EF09F086
:1013C0003050316E326A3250000AD8B4EAEF09F078
:1013D00087EF09F03150000AD8B48BEF09F0010A09
:1013E000D8B4B8EF09F087EF09F03650120040503A
:1013F000D8A4FDEF09F0FFEF09F003EF0AF0000EAB
:10140000446E7BEF0AF040C037F0C5EC0CF0446E40
:101410004028376EC5EC0CF0446E000E436E000E93
:10142000426E40504224020F376EC5EC0CF0424A27
:10143000432A43BE25EF0AF0435009E1080E425CFF
:10144000D8A025EF0AF027EF0AF011EF0AF0340ECA
:10145000416EF20EE82EFED7412EFCD740C02FF091
:10146000000E306E6FEC09F040C039F0380E3A6E65
:10147000DDEC0BF00D0E416EFC0EE82EFED7412E7A
:10148000FCD740C039F0380E3A6EDDEC0BF0640E3C
:10149000E82EFED740C039F0380E3A6EDDEC0BF086
:1014A000446E40C039F0010E3A6EDDEC0BF0446E34
:1014B00040C039F0020E3A6EDDEC0BF0446E40C0D5
:1014C00039F0060E3A6EDDEC0BF0446E40C039F098
:1014D0000C0E3A6EDDEC0BF0446E40C039F0380E65
:1014E0003A6EDDEC0BF0446E40C039F0800E3A6E7F
:1014F000DDEC0BF0446E445012004150D8A483EF51
:101500000AF085EF0AF089EF0AF0000E456EF5EF5C
:101510000AF041C037F0C5EC0CF0456E4128376E3B
:10152000C5EC0CF0456E000E446E000E436E41504B
:101530004324020F376EC5EC0CF0434A442A44BEE4
:10154000ABEF0AF0445009E1040E435CD8A0ABEFC6
:101550000AF0ADEF0AF097EF0AF0340E426EF20E89
:10156000E82EFED7422EFCD741C03EF0380E3F6E2B
:1015700022EC0DF00D0E426EFC0EE82EFED7422E30
:10158000FCD741C03EF0380E3F6E22EC0DF0640EE9
:10159000E82EFED741C03EF0380E3F6E22EC0DF033
:1015A00041C03EF0010E3F6E22EC0DF041C03EF016
:1015B000020E3F6E22EC0DF041C03EF0060E3F6E73
:1015C00022EC0DF041C03EF00C0E3F6E22EC0DF00F
:1015D00041C03EF0280E3F6E22EC0DF041C03EF0BF
:1015E000800E3F6E22EC0DF0456E455012004050CB
:1015F000D8A4FDEF0AF0FFEF0AF003EF0BF0000EA6
:10160000436E47EF0BF040C02FF0000E306E6FECD2
:1016100009F0420634EF0BF040C039F04250800F21
:101620003A6EDDEC0BF0436E47EF0BF040C039F043
:101630004250C00F3A6EDDEC0BF0436E47EF0BF0FB
:1016400040C039F04250940F3A6EDDEC0BF0436E1F
:1016500047EF0BF040C039F04250D40F3A6EDDEC4A
:101660000BF0436E47EF0BF04150010AD8B40CEF7A
:101670000BF0030AD8B416EF0BF0010AD8B420EF30
:101680000BF0070AD8B42AEF0BF0FFEF0AF0435033
:1016900012004150D8A44FEF0BF051EF0BF055EF73
:1016A0000BF0000E446E99EF0BF041C02FF0000ECE
:1016B000306E6FEC09F0430686EF0BF041C03EF050
:1016C0004350800F3F6E22EC0DF0446E99EF0BF00B
:1016D00041C03EF04350C00F3F6E22EC0DF0446E0F
:1016E00099EF0BF041C03EF04350940F3F6E22EC57
:1016F0000DF0446E99EF0BF041C03EF04350D40F13
:101700003F6E22EC0DF0446E99EF0BF04250010A4F
:10171000D8B45EEF0BF0030AD8B468EF0BF0010AFF
:10172000D8B472EF0BF0070AD8B47CEF0BF051EF8E
:101730000BF0445012003950D8A4A1EF0BF0A3EFE6
:101740000BF0A7EF0BF0000E3D6EDBEF0BF039C096
:101750002FF0010E306E6FEC09F0000E3F6E000EA0
:101760003E6E39503E24020F2F6E3EC03BF03AC011
:101770003CF03B2ABEEF0BF0D8903C323B2EBCEF46
:101780000BF03C50010B306E6FEC09F03E4A3F2AE3
:101790003FBED4EF0BF03F5009E1080E3E5CD8A0ED
:1017A000D4EF0BF0D6EF0BF0B1EF0BF039C037F000
:1017B0009BEC0DF03D6E3D5012003950D8A4E3EF84
:1017C0000BF0E5EF0BF0E9EF0BF0000E3D6E1DEFB7
:1017D0000CF039C02FF0000E306E6FEC09F0000EE7
:1017E0003F6E000E3E6E39503E24020F2F6E3EC0FB
:1017F0003BF03AC03CF03B2A00EF0CF0D8903C3272
:101800003B2EFEEF0BF03C50010B306E6FEC09F0FD
:101810003E4A3F2A3FBE16EF0CF03F5009E1080E4A
:101820003E5CD8A016EF0CF018EF0CF0F3EF0BF0C5
:1018300039C037F09BEC0DF03D6E3D501200375033
:10184000D8A425EF0CF027EF0CF02BEF0CF0000ED6
:101850003B6E55EF0CF0000E3D6E000E3C6E3750A7
:101860003C24020F2F6E3CC039F038C03AF0392AC0
:101870003CEF0CF0D8903A32392E3AEF0CF03A5057
:10188000010B306E6FEC09F03B6E3C4A3D2A3DBEC9
:1018900053EF0CF03D5009E1040E3C5CD8A053EF2F
:1018A0000CF055EF0CF02FEF0CF03B5012004950AC
:1018B000D8A45DEF0CF05FEF0CF063EF0CF0000EBE
:1018C0004E6E8CEF0CF049C039F04D50080DF350BE
:1018D000400F3A6EDDEC0BF0000E4F6E49C039F050
:1018E0004C504F24D96EDA6ADF503A6E9BEC0BF005
:1018F0004F2A070E4F647FEF0CF081EF0CF06EEF74
:101900000CF049C044F04AC045F04BC046F04DC011
:1019100047F0D9EC0DF04E6E4E5012004A50D8A44C
:1019200094EF0CF096EF0CF09AEF0CF0000E4F6E67
:10193000C3EF0CF04AC03EF04E50080DF350400F7C
:101940003F6E22EC0DF0000E506E4AC03EF04D503E
:101950005024D96EDA6ADF503F6EF4EC0CF0502A56
:10196000070E5064B6EF0CF0B8EF0CF0A5EF0CF0DA
:101970004AC045F04BC046F04CC047F04EC048F05E
:10198000F7EC0DF04F6E4F5012003750D8B4CBEF3C
:101990000CF0CDEF0CF0DDEF0CF03750D96EDA6AB9
:1019A000DF30E832E832070B386E070E3864DBEFC1
:1019B0000CF0DDEF0CF0E1EF0CF0000E396EF2EF01
:1019C0000CF037C02FF0E6EC08F037C02FF037509E
:1019D000D96EDA6A000EDFBE010E306E6FEC09F0D0
:1019E000010E396E395012003E50D8A4FAEF0CF0B7
:1019F000FCEF0CF000EF0DF0000E406E20EF0DF04C
:101A00003EC02FF0010E306E6FEC09F0406E3EC00C
:101A100037F03F380F0B386E1FEC0CF0406E3EC0B5
:101A200037F0BAEC0DF0406E3EC037F03FC038F0F2
:101A30001FEC0CF0406E3EC037F0BAEC0DF0406E7B
:101A4000405012003E50D8A428EF0DF02AEF0DF0C0
:101A50002EEF0DF0000E406E4EEF0DF03EC02FF059
:101A6000000E306E6FEC09F0406E3EC037F03F382C
:101A70000F0B386E1FEC0CF0406E3EC037F0BAEC26
:101A80000DF0406E3EC037F03FC038F01FEC0CF058
:101A9000406E3EC037F0BAEC0DF0406E4050120080
:101AA000F60EF66E1A0EF76E000EF86E00EE60F08F
:101AB00010EE40F00900F5CFEEFFE550E150FAE1FD
:101AC0002A0EF66E1C0EF76E000EF86E00EE01F098
:101AD00010EE2EF00900F5CFEEFFE550E150FAE1EF
:101AE00000EE53F0070EEE6AE806FDE1000EF86E18
:101AF000000127EF08F000000A1F0E04000000009C
:101B0000081C1810000000000207030100000E1F4F
:101B10001F1F1F1F1F1F0E1F111F1F1F1F1F0E1F05
:101B200011111F1F1F1F0E1F1111111F1F1F0E1F2D
:101B3000111111111F1F3750D8A4A1EF0DF0A3EF01
:101B40000DF0A7EF0DF0000E386EB8EF0DF037284E
:101B50002F6E010E306E6FEC09F0030EE82EFED7EB
:101B6000000037282F6E000E306E6FEC09F0386ED3
:101B7000385012003750D8A4C0EF0DF0C2EF0DF06E
:101B8000C6EF0DF0000E386ED7EF0DF037282F6E30
:101B9000010E306E6FEC09F0030EE82EFED7000048
:101BA00037282F6E000E306E6FEC09F0386E38500B
:101BB00012004450D8A4DFEF0DF0E1EF0DF0E5EF97
:101BC0000DF0000E486EF5EF0DF044C040F045C03A
:101BD00041F046C042F0F7EC0AF0486E44C039F0DC
:101BE00047C03AF09BEC0BF0486E4850120045504D
:101BF000D8A4FDEF0DF0FFEF0DF003EF0EF0000E97
:101C0000496E13EF0EF045C041F046C042F047C0A8
:101C100043F049EC0BF0496E45C03EF048C03FF040
:101C2000F4EC0CF0496E49501200890F8A0F8B0FAB
:101C30008C0F8D0F800F810F820F830F840F920FF7
:101C4000930F940F950F960F323A030B131B232B10
:101C5000333B020A121A222A290E416E7DEC0AF049
:101C60001F0E406EF7EC09F012002CEC0EF0120083
:020000040030CA
:0E000000FF02191EFF8981FF0FC00FE00F40A5
:00000001FF
