:100000005FEF01F0FF00FF004C82FACF2FF0FBCF33
:1000100030F0D9CF31F0DACF32F0F3CF33F0F4CF84
:1000200034F0F2A816EF00F018EF00F021EF00F026
:10003000F2A21DEF00F01FEF00F021EF00F0F2EC54
:100040000EF0F0A626EF00F028EF00F031EF00F000
:10005000F0A02DEF00F02FEF00F031EF00F0F0EC0A
:100060000EF0F0A836EF00F038EF00F041EF00F0AE
:10007000F0A23DEF00F03FEF00F041EF00F0EEECBA
:100080000EF0F2A646EF00F048EF00F063EF00F04C
:10009000F2A04DEF00F04FEF00F063EF00F081B8F9
:1000A00054EF00F056EF00F063EF00F01A04D8A40C
:1000B0005CEF00F05EEF00F063EF00F0000E1A6EF0
:1000C000000E58EC0CF0F2A668EF00F06AEF00F0BA
:1000D00085EF00F0F2A06FEF00F071EF00F085EF18
:1000E00000F081A876EF00F078EF00F085EF00F0E7
:1000F0001A50D8A47EEF00F080EF00F085EF00F0FA
:10010000010E1A6E010E58EC0CF0F2A68AEF00F008
:100110008CEF00F0A7EF00F0F2A091EF00F093EF6A
:1001200000F0A7EF00F081BA98EF00F09AEF00F02E
:10013000A7EF00F01904D8A4A0EF00F0A2EF00F0A0
:10014000A7EF00F0000E196E000E19EC0CF0F2A6ED
:10015000ACEF00F0AEEF00F0C9EF00F0F2A0B3EFAB
:1001600000F0B5EF00F0C9EF00F081AABAEF00F09F
:10017000BCEF00F0C9EF00F01950D8A4C2EF00F0B6
:10018000C4EF00F0C9EF00F0010E196E010E19EC7A
:100190000CF0F2A6CEEF00F0D0EF00F0EBEF00F0A5
:1001A000F2A0D5EF00F0D7EF00F0EBEF00F081BC4C
:1001B000DCEF00F0DEEF00F0EBEF00F01804D8A465
:1001C000E4EF00F0E6EF00F0EBEF00F0000E186E49
:1001D000000EDAEC0BF0F2A6F0EF00F0F2EF00F018
:1001E0000DEF01F0F2A0F7EF00F0F9EF00F00DEFE6
:1001F00001F081ACFEEF00F000EF01F00DEF01F037
:100200001850D8A406EF01F008EF01F00DEF01F04F
:10021000010E186E010EDAEC0BF0F2A612EF01F0EF
:1002200014EF01F02FEF01F0F2A019EF01F01BEF36
:1002300001F02FEF01F081BE20EF01F022EF01F07D
:100240002FEF01F01704D8A428EF01F02AEF01F0F6
:100250002FEF01F0000E176E000E9BEC0BF0F2A6D4
:1002600034EF01F036EF01F051EF01F0F2A03BEF77
:1002700001F03DEF01F051EF01F081AE42EF01F0EE
:1002800044EF01F051EF01F01750D8A44AEF01F00C
:100290004CEF01F051EF01F0010E176E010E9BECD7
:1002A0000BF034C0F4FF33C0F3FF32C0DAFF31C0CB
:1002B000D9FF30C0FBFF2FC0FAFF4C9211001CEF9A
:1002C0000EF0FF00FF00FF00FF00FF00FF00FF0037
:10100000003738392F3435362A3132332D43303DCD
:101010002B25690000000001A551D8A412EF08F0AB
:1010200014EF08F018EF08F0000EA96FA3EF08F016
:10103000A5C09CF0EAEC0DF00001A96FA5299C6FFA
:10104000EAEC0DF00001A96F000EA86F000EA76F6B
:10105000A551A725020F9C6FEAEC0DF00001A74BEC
:10106000A82BA8BF3DEF08F0A85109E1080EA75D25
:10107000D8A03DEF08F03FEF08F028EF08F0340E5D
:101080000001A66FF10EE82EFED7A62FFCD700F0C8
:1010900000F0A5C035F0000E366E44EC0AF0A5C095
:1010A0009EF0380E00019F6F54EC0BF00D0E000106
:1010B000A66FFB0EE82EFED7A62FFCD700F000F09F
:1010C000A5C09EF0380E00019F6F54EC0BF0640E2B
:1010D000E82EFED7A5C09EF0380E00019F6F54EC9D
:1010E0000BF00001A96FA5C09EF0010E9F6F54EC9C
:1010F0000BF00001A96FA5C09EF0020E9F6F54EC8B
:101100000BF00001A96FA5C09EF0060E9F6F54EC76
:101110000BF00001A96FA5C09EF00C0E9F6F54EC60
:101120000BF00001A96FA5C09EF0380E9F6F54EC24
:101130000BF00001A96FA5C09EF0800E9F6F54ECCC
:101140000BF00001A96FA95112000001A651D8A40B
:10115000ACEF08F0AEEF08F0B2EF08F0000EAA6FA7
:1011600031EF09F0A6C09CF0EAEC0DF00001AA6F87
:10117000A6299C6FEAEC0DF00001AA6F000EA96F82
:10118000000EA86FA651A825020F9C6FEAEC0DF087
:101190000001A84BA92BA9BFD7EF08F0A95109E17D
:1011A000040EA85DD8A0D7EF08F0D9EF08F0C2EF81
:1011B00008F0340E0001A76FF10EE82EFED7A72F1E
:1011C000FCD700F000F0A6C0A3F0380E0001A46F19
:1011D00084EC0DF00D0E0001A76FFB0EE82EFED77C
:1011E000A72FFCD700F000F0A6C0A3F0380E000136
:1011F000A46F84EC0DF0640EE82EFED7A6C0A3F019
:10120000380E0001A46F84EC0DF0A6C0A3F0010E0F
:101210000001A46F84EC0DF0A6C0A3F0020E000143
:10122000A46F84EC0DF0A6C0A3F0060E0001A46F1D
:1012300084EC0DF0A6C0A3F00C0E0001A46F84ECAA
:101240000DF0A6C0A3F0280E0001A46F84EC0DF0F1
:10125000A6C0A3F0800E0001A46F84EC0DF0000185
:10126000AA6FAA5112003550D8B439EF09F03BEFFC
:1012700009F04BEF09F03550D96EDA6ADF30E83209
:10128000E832070B366E070E366449EF09F04BEF74
:1012900009F0A4EF09F0000E3B6EBAEF09F03550EB
:1012A000D96EDA6ADF30E832E832070B366E010EAB
:1012B000376E362A5EEF09F0D8903736362E5CEF5F
:1012C00009F03750FF0A386E3550D96EDA6ADF50B0
:1012D000070B020DF3506A0FD96EDA6ADECF39F0D0
:1012E000DDCF3AF039C0D9FF3AC0DAFF3850DF1607
:1012F000010E3B6EBAEF09F03550D96EDA6ADF3075
:10130000E832E832070B366E010E376E362A8BEF65
:1013100009F0D8903736362E89EF09F03550D96E5E
:10132000DA6ADF50070B020DF3506A0FD96EDA6AE2
:10133000DECF38F0DDCF39F038C0D9FF39C0DAFF61
:101340003750DF1278EF09F03550D96EDA6ADFBC1A
:10135000ACEF09F0AFEF09F0010EB0EF09F0000EAD
:10136000000AD8B44FEF09F0010AD8B47CEF09F0B5
:101370004BEF09F03B5012003C50D8A4C2EF09F0EB
:10138000C4EF09F0C9EF09F0000E00019C6F42EFB5
:101390000AF0F296F290F28EF28C3C50040F356E09
:1013A00033EC09F000019C6F26EF0AF07D883C5079
:1013B000D96EDA6A020ED926DECF0DF0DDCF0EF03F
:1013C0003C50D96EDA6ADECF0FF0DDCF10F041EF7E
:1013D0000AF07D8A3C50D96EDA6A020ED926DECF39
:1013E00009F0DDCF0AF03C50D96EDA6ADECF0BF09F
:1013F000DDCF0CF041EF0AF07D8C3C50D96EDA6AFB
:10140000020ED926DECF05F0DDCF06F03C50D96EB6
:10141000DA6ADECF07F0DDCF08F041EF0AF07D8E0B
:101420003C50D96EDA6A020ED926DECF01F0DDCF4C
:1014300002F03C50D96EDA6ADECF03F0DDCF04F063
:1014400041EF0AF0000E9C6F41EF0AF03C50D96E5C
:10145000DA6A040ED926DF30E832E832070B040AD4
:10146000D8B4D6EF09F0010AD8B4E9EF09F0030ABD
:10147000D8B4FCEF09F0010AD8B40FEF0AF022EF5C
:101480000AF0F2869C5112003550D8B44AEF0AF0A7
:101490004CEF0AF05CEF0AF03550D96EDA6ADF30B3
:1014A000E832E832070B376E070E37645AEF0AF05E
:1014B0005CEF0AF0B5EF0AF0000E3C6ECAEF0AF0DE
:1014C0003550D96EDA6ADF30E832E832070B376E12
:1014D000010E386E372A6FEF0AF0D8903836372E63
:1014E0006DEF0AF03850FF0A396E3550D96EDA6A5E
:1014F000DF50070B020DF3503D0FD96EDA6ADECFD5
:101500003AF0DDCF3BF03AC0D9FF3BC0DAFF3950AB
:10151000DF16010E3C6ECAEF0AF03550D96EDA6A5A
:10152000DF30E832E832070B376E010E386E372AAB
:101530009CEF0AF0D8903836372E9AEF0AF03550E3
:10154000D96EDA6ADF50070B020DF3503D0FD96EEA
:10155000DA6ADECF39F0DDCF3AF039C0D9FF3AC0D0
:10156000DAFF3850DF1289EF0AF03650376E386AEA
:101570003850000AD8B4BFEF0AF05CEF0AF03750D9
:10158000000AD8B460EF0AF0010AD8B48DEF0AF06F
:101590005CEF0AF03C5012002250D8B4D2EF0AF0AF
:1015A000D4EF0AF0E4EF0AF02250D96EDA6ADF30A5
:1015B000E832E832070B246E070E2464E2EF0AF0EB
:1015C000E4EF0AF03DEF0BF0000E296E52EF0BF046
:1015D0002250D96EDA6ADF30E832E832070B246E27
:1015E000010E256E242AF7EF0AF0D8902536242E16
:1015F000F5EF0AF02550FF0A266E2250D96EDA6AFE
:10160000DF50070B020DF3503D0FD96EDA6ADECFC3
:1016100027F0DDCF28F027C0D9FF28C0DAFF2650F9
:10162000DF16010E296E52EF0BF02250D96EDA6AE6
:10163000DF30E832E832070B246E010E256E242AD3
:1016400024EF0BF0D8902536242E22EF0BF02250F9
:10165000D96EDA6ADF50070B020DF3503D0FD96ED9
:10166000DA6ADECF26F0DDCF27F026C0D9FF27C00B
:10167000DAFF2550DF1211EF0BF02350246E256A9C
:101680002550000AD8B447EF0BF0E4EF0AF02450DD
:10169000000AD8B4E8EF0AF0010AD8B415EF0BF04D
:1016A000E4EF0AF02950120000019E51D8A45BEF2C
:1016B0000BF05DEF0BF061EF0BF0000EA26F99EFF6
:1016C0000BF09EC035F0000E366E44EC0AF0000EB2
:1016D0000001A46F000EA36F9E51A325020F356E6B
:1016E000A3C0A0F09FC0A1F0A02B79EF0BF0D89081
:1016F000A133A02F77EF0BF00001A151010B366E43
:1017000044EC0AF00001A34BA42BA4BF91EF0BF013
:10171000A45109E1080EA35DD8A091EF0BF093EF5F
:101720000BF06CEF0BF09EC09CF047EC0EF000014C
:10173000A26FA25112002E6EF2902E04D8A4A3EF35
:101740000BF0A5EF0BF0BCEF0BF001500210D8B47A
:10175000ACEF0BF0AEEF0BF0D9EF0BF002D8BAEF15
:101760000BF00500FA6E0150FD6E0250FE6EFF6A2E
:10177000FA501200D9EF0BF02E50D8A4C2EF0BF0A4
:10178000C4EF0BF0D9EF0BF003500410D8B4CBEF3B
:101790000BF0CDEF0BF0D9EF0BF002D8D9EF0BF037
:1017A0000500FA6E0350FD6E0450FE6EFF6AFA509B
:1017B000120012002E6EF2902E04D8A4E2EF0BF06D
:1017C000E4EF0BF0FBEF0BF005500610D8B4EBEF95
:1017D0000BF0EDEF0BF018EF0CF002D8F9EF0BF077
:1017E0000500FA6E0550FD6E0650FE6EFF6AFA5057
:1017F000120018EF0CF02E50D8A401EF0CF003EFFC
:101800000CF018EF0CF007500810D8B40AEF0CF0E9
:101810000CEF0CF018EF0CF002D818EF0CF00500EC
:10182000FA6E0750FD6E0850FE6EFF6AFA50120005
:1018300012002E6EF2902E04D8A421EF0CF023EFAC
:101840000CF03AEF0CF009500A10D8B42AEF0CF063
:101850002CEF0CF057EF0CF002D838EF0CF005002D
:10186000FA6E0950FD6E0A50FE6EFF6AFA501200C1
:1018700057EF0CF02E50D8A440EF0CF042EF0CF0D4
:1018800057EF0CF00B500C10D8B449EF0CF04BEFA5
:101890000CF057EF0CF002D857EF0CF00500FA6E81
:1018A0000B50FD6E0C50FE6EFF6AFA5012001200D3
:1018B0002E6EF2902E04D8A460EF0CF062EF0CF0C4
:1018C00079EF0CF00D500E10D8B469EF0CF06BEFFF
:1018D0000CF096EF0CF002D877EF0CF00500FA6EE2
:1018E0000D50FD6E0E50FE6EFF6AFA50120096EF1C
:1018F0000CF02E50D8A47FEF0CF081EF0CF096EF97
:101900000CF00F501010D8B488EF0CF08AEF0CF0E8
:1019100096EF0CF002D896EF0CF00500FA6E0F501F
:10192000FD6E1050FE6EFF6AFA50120012000001A8
:101930009F51D8A49EEF0CF0A0EF0CF0A4EF0CF098
:10194000000EA16FD1EF0CF021C0A2F09F51D96E13
:10195000DA6ADF50070BA06FA251A019F80BA0198B
:10196000A26F9F51D96EDA6ADF30E832E832070B96
:10197000A06FA047A047A047A251A019C70BA0196C
:10198000A26FA29D9F51D96EDA6ADFAC02D0A28FFE
:1019900002D00001A29FA20E9C6FEAEC0DF00001A4
:1019A000A16FA151120000019C51D8A4DAEF0CF0F4
:1019B000DCEF0CF0E0EF0CF0000EA06F0CEF0DF080
:1019C000000EA26F000EA16F9C51A125020F356E73
:1019D000A1C09EF09DC09FF09E2BF1EF0CF0D8901F
:1019E0009F339E2FEFEF0CF000019F51010B366EDD
:1019F00044EC0AF00001A06FA14BA22BA2BF0AEF9A
:101A00000DF0A25109E1040EA15DD8A00AEF0DF07E
:101A10000CEF0DF0E4EF0CF0A05112002A50D8A406
:101A200014EF0DF016EF0DF01AEF0DF0000E2C6E06
:101A300047EF0DF01FC02DF02A50D96EDA6ADF5043
:101A4000070B2B6E2D502B18F80B2B182D6E2A50D0
:101A5000D96EDA6ADF30E832E832070B2B6E2B469C
:101A60002B462B462D502B18C70B2B182D6E2D9C5B
:101A70002A50D96EDA6ADFAC02D02D8E01D02D9EAD
:101A80002D0E226E000E236ECCEC0AF02C6E2C5024
:101A900012002A50D8A44FEF0DF051EF0DF055EF82
:101AA0000DF0000E2C6E82EF0DF020C02DF02A50AC
:101AB000D96EDA6ADF50070B2B6E2D502B18F80BFE
:101AC0002B182D6E2A50D96EDA6ADF30E832E832F0
:101AD000070B2B6E2B462B462B462D502B18C70B76
:101AE0002B182D6E2D9C2A50D96EDA6ADFAC02D0ED
:101AF0002D8E01D02D9E2D0E226E010E236ECCEC6C
:101B00000AF02C6E2C5012000001A351D8A48BEFC8
:101B10000DF08DEF0DF091EF0DF0000EA56FB6EF0B
:101B20000DF0A3C035F0000E366E44EC0AF0000153
:101B3000A56FA3C09CF0A4390F0B9D6FD3EC0CF0E4
:101B40000001A56FA3C09CF069EC0EF00001A56F29
:101B5000A3C09CF0A4C09DF0D3EC0CF00001A56FD5
:101B6000A3C09CF069EC0EF00001A56FA551120016
:101B7000EBEC0EF04A0E00019F6F97EC0CF04B6EF1
:101B8000490E00019F6F97EC0CF04B6E480E000160
:101B90009F6F97EC0CF04B6E470E00019F6F97EC18
:101BA0000CF04B6E900E3C6EBCEC09F04B6E8A0E46
:101BB0003C6EBCEC09F04B6E840E3C6EBCEC09F044
:101BC0004B6E7E0E3C6EBCEC09F04B6EE6EF0DF0FA
:101BD0005FEF01F000019C51D8B4F1EF0DF0F3EF8D
:101BE0000DF003EF0EF09C51D96EDA6ADF30E83267
:101BF000E832070B9D6F070E9D6501EF0EF003EFB6
:101C00000EF007EF0EF0000E9E6F1AEF0EF09CC064
:101C100035F033EC09F09CC035F000019C51D96ED1
:101C2000DA6A000EDFBE010E366E44EC0AF0010ED9
:101C300000019E6F9E511200160EF66E1D0EF76E7D
:101C4000000EF86E00EE60F010EE3CF00900F5CFEB
:101C5000EEFFE550E150FAE1680EF66E1D0EF76EEC
:101C6000000EF86E00EE3DF010EE0EF00900F5CF1C
:101C7000EEFFE550E150FAE100EE01F0210EEE6AD0
:101C8000E806FDE14C904C920001B8EF0DF0000128
:101C90009C51D8A44EEF0EF050EF0EF054EF0EF022
:101CA000000E9D6F67EF0EF09C29356E010E366EAB
:101CB00044EC0AF0030EE82EFED7000000019C2938
:101CC000356E000E366E44EC0AF000019D6F9D519A
:101CD000120000019C51D8A470EF0EF072EF0EF0CC
:101CE00076EF0EF0000E9D6F89EF0EF09C29356E99
:101CF000010E366E44EC0AF0030EE82EFED700000B
:101D000000019C29356E000E366E44EC0AF000018D
:101D10009D6F9D511200800F810F820F830F840FE2
:101D2000920F930F940F950F960F323A030B131BDC
:101D3000232B333B9A1DCA1D7900761DA61D710108
:101D4000821DB21D69008E1DBE1D6101020A121A9C
:101D5000222A960E0001A66FA5EC08F0740E000171
:101D6000A56F0BEC08F01200890F8A0F8B0F8C0FF8
:101D70008D0F1A120A02470E2A6E49EC0DF04B6EB7
:101D80001200490E2A6E0EEC0DF04B6E1200490E39
:101D90002A6E49EC0DF04B6E1200470E2A6E0EECC7
:101DA0000DF04B6E1200480E2A6E49EC0DF04B6E92
:101DB00012004A0E2A6E0EEC0DF04B6E12004A0E07
:101DC0002A6E49EC0DF04B6E1200480E2A6E0EEC96
:101DD0000DF04B6E1200A9EC0EF01200F092120002
:101DE000F0901200F2921200FF00FF00FF00FF00CF
:020000040030CA
:0E000000FF02191EFF8981FF0FC00FE00F40A5
:00000001FF
