:1000000002EF00F0CEEF0AF0FF00FF00FF00FF005C
:1010000000002650D8B407EF08F009EF08F019EFF8
:1010100008F02650D96EDA6ADF30E832E832070B82
:10102000276E070E276417EF08F019EF08F072EF2C
:1010300008F0000E2C6E88EF08F02650D96EDA6AA0
:10104000DF30E832E832070B276E010E286E272AC0
:101050002CEF08F0D8902836272E2AEF08F02850D9
:10106000FF0A296E2650D96EDA6ADF50070B020D8F
:10107000F350150FD96EDA6ADECF2AF0DDCF2BF0F0
:101080002AC0D9FF2BC0DAFF2950DF16010E2C6EC3
:1010900088EF08F02650D96EDA6ADF30E832E8329D
:1010A000070B276E010E286E272A59EF08F0D890FB
:1010B0002836272E57EF08F02650D96EDA6ADF500F
:1010C000070B020DF350150FD96EDA6ADECF29F047
:1010D000DDCF2AF029C0D9FF2AC0DAFF2850DF125D
:1010E00046EF08F02650D96EDA6ADFBC7AEF08F0D6
:1010F0007DEF08F0010E7EEF08F0000E000AD8B474
:101100001DEF08F0010AD8B44AEF08F019EF08F013
:101110002C5012002650D8B490EF08F092EF08F04F
:10112000A2EF08F02650D96EDA6ADF30E832E832F2
:10113000070B286E070E2864A0EF08F0A2EF08F056
:10114000FBEF08F0000E2D6E10EF09F02650D96E5F
:10115000DA6ADF30E832E832070B286E010E296EBA
:10116000282AB5EF08F0D8902936282EB3EF08F0DA
:101170002950FF0A2A6E2650D96EDA6ADF50070B13
:10118000020DF350010FD96EDA6ADECF2BF0DDCFFE
:101190002CF02BC0D9FF2CC0DAFF2A50DF16010E2D
:1011A0002D6E10EF09F02650D96EDA6ADF30E83282
:1011B000E832070B286E010E296E282AE2EF08F0AC
:1011C000D8902936282EE0EF08F02650D96EDA6A3A
:1011D000DF50070B020DF350010FD96EDA6ADECF34
:1011E0002AF0DDCF2BF02AC0D9FF2BC0DAFF29501F
:1011F000DF12CFEF08F02750286E296A2950000A25
:10120000D8B405EF09F0A2EF08F02850000AD8B4CE
:10121000A6EF08F0010AD8B4D3EF08F0A2EF08F067
:101220002D501200FCEC0AF0000E376E000E366EE8
:10123000250E266E000E276E8AEC08F0416E240EF5
:10124000266E010E276E8AEC08F0416E1F0E2E6E80
:1012500038C026F039C027F0000E296E0A0E286E1D
:101260007EEC09F026502F6E38EC0AF0416E1A0E13
:10127000356EF80EE82EFED7352EFCD700F000F0C4
:101280001F0E2E6E38C026F039C027F0000E296ED2
:101290000A0E286EE0EC09F026502F6E38EC0AF0AA
:1012A000416E250E266E010E276E8AEC08F0416E07
:1012B0001A0E356EF80EE82EFED7352EFCD700F04C
:1012C00000F0250E266E000E276E8AEC08F0416EA7
:1012D000364A372A37BE76EF09F0375009E1320E29
:1012E000365CD8A076EF09F078EF09F018EF09F036
:1012F000384A392A14EF09F002EF00F0000E2B6E85
:1013000029BE87EF09F085EF09F08DEF09F0286C11
:10131000291ED8B0292A010E2B6E27BE94EF09F0A2
:1013200092EF09F09AEF09F0266C271ED8B0272A11
:10133000010E2B1A000E2D6E000E2C6E2850291057
:10134000D8B4A5EF09F0A7EF09F0CFEF09F0010E2F
:101350002A6EAFEF09F0D890283629362A2A29AE0E
:10136000B4EF09F0B6EF09F0ABEF09F0D8902C36E6
:101370002D362850265C29502758D8A0C2EF09F0F6
:10138000C4EF09F0C9EF09F02850265E2950275A0A
:101390002C80D890293228322A2EB6EF09F02B5013
:1013A000D8B4D5EF09F0D7EF09F0DBEF09F02C6CDA
:1013B0002D1ED8B02D2A2CC026F02DC027F01200EB
:1013C000000E2B6E27BEE9EF09F0E7EF09F0EFEF13
:1013D00009F0266C271ED8B0272A010E2B6E29BED5
:1013E000F6EF09F0F4EF09F0FAEF09F0286C291E86
:1013F000D8B0292A28502910D8B401EF0AF003EFF9
:101400000AF027EF0AF0010E2A6E0BEF0AF0D890CF
:10141000283629362A2A29AE10EF0AF012EF0AF0F0
:1014200007EF0AF02850265C29502758D8A01BEF58
:101430000AF01DEF0AF021EF0AF02850265E29502D
:10144000275AD890293228322A2E12EF0AF02B5030
:10145000D8B42DEF0AF02FEF0AF033EF0AF0266C24
:10146000271ED8B0272A26C026F027C027F0120052
:101470002E50D8B43EEF0AF040EF0AF048EF0AF0E1
:10148000090E2F6446EF0AF048EF0AF04CEF0AF01D
:10149000000E326E75EF0AF0000E346E000E336EE1
:1014A0002E503324266E33C030F02FC031F0302A56
:1014B0005CEF0AF0D8903132302E5AEF0AF03150FA
:1014C000010B276E8AEC08F0326E334A342A34BEA0
:1014D00073EF0AF0345009E1040E335CD8A073EFC7
:1014E0000AF075EF0AF050EF0AF0325012002E5059
:1014F000D8B47DEF0AF07FEF0AF08FEF0AF02E509C
:10150000D96EDA6ADF30E832E832070B2F6E070E49
:101510002F648DEF0AF08FEF0AF093EF0AF0000EC0
:10152000306EA4EF0AF02EC026F001EC08F02EC0B9
:1015300026F02E50D96EDA6A000EDFBE010E276E3D
:101540008AEC08F0010E306E305012003150D8A4F1
:10155000ACEF0AF0AEEF0AF0B2EF0AF0000E326E16
:10156000CCEF0AF0000E346E000E336E315033248F
:101570002E6E77EC0AF0326E334A342A34BECAEF4C
:101580000AF0345009E1040E335CD8A0CAEF0AF027
:10159000CCEF0AF0B6EF0AF032501200D20EF66E1F
:1015A000150EF76E000EF86E00EE01F010EE25F04D
:1015B0000900F5CFEEFFE550E150FAE100EE38F01A
:1015C000090EEE6AE806FDE1000EF86E000112EF6A
:1015D00009F0890F8A0F8B0F8C0F8D0F800F810FF1
:1015E000820F830F840F920F930F940F950F960F16
:1015F000020A121A012A22001F0E316EA6EC0AF00E
:10160000416E250E2E6E77EC0AF0416E240E2E6E82
:1016100077EC0AF0416E1200FF00FF00FF00FF00B0
:020000040030CA
:0E000000FF02191EFF8981FF0FC00FE00F40A5
:00000001FF
