:1000000002EF00F001EF08F0FF00FF00FF00FF002B
:101000000000380EF66E100EF76E000EF86E00EE51
:1010100001F010EE1EF00900F5CFEEFFE550E150B3
:10102000FAE100EE1FF0080EEE6AE806FDE1000EA0
:10103000F86E00012BEF08F0890F8A0F8B0F8C0FD1
:101040008D0F800F810F820F830F840F920F930FEC
:10105000940F950F960F31EC08F02DEF08F002EF8A
:1010600000F01200FF00FF00FF00FF00FF00FF0084
:020000040030CA
:0E000000FF02191EFF8981FF0FC00FE00F40A5
:00000001FF
