:100000004FEF01F0FF00FF005882FACF45F0FBCF21
:1000100046F0F2A80EEF00F010EF00F019EF00F03C
:10002000F2A215EF00F017EF00F019EF00F0F8EC76
:100030000EF0F0A61EEF00F020EF00F029EF00F028
:10004000F0A025EF00F027EF00F029EF00F0E1EC41
:100050000EF0F0A82EEF00F030EF00F039EF00F0D6
:10006000F0A235EF00F037EF00F039EF00F0CAEC06
:100070000EF0F2A63EEF00F040EF00F05BEF00F074
:10008000F2A045EF00F047EF00F05BEF00F081B821
:100090004CEF00F04EEF00F05BEF00F01B04D8A433
:1000A00054EF00F056EF00F05BEF00F0000E1B6E17
:1000B000000EA4EC0FF0F2A660EF00F062EF00F08B
:1000C0007DEF00F0F2A067EF00F069EF00F07DEF48
:1000D00000F081A86EEF00F070EF00F07DEF00F00F
:1000E0001B50D8A476EF00F078EF00F07DEF00F021
:1000F000010E1B6E010EA4EC0FF0F2A682EF00F0D1
:1001000084EF00F09FEF00F0F2A089EF00F08BEF9A
:1001100000F09FEF00F081BA90EF00F092EF00F056
:100120009FEF00F01A04D8A498EF00F09AEF00F0C7
:100130009FEF00F0000E1A6E000E97EC0FF0F2A683
:10014000A4EF00F0A6EF00F0C1EF00F0F2A0ABEFDB
:1001500000F0ADEF00F0C1EF00F081AAB2EF00F0C7
:10016000B4EF00F0C1EF00F01A50D8A4BAEF00F0DD
:10017000BCEF00F0C1EF00F0010E1A6E010E97EC1B
:100180000FF0F2A6C6EF00F0C8EF00F0E3EF00F0CA
:10019000F2A0CDEF00F0CFEF00F0E3EF00F081BC74
:1001A000D4EF00F0D6EF00F0E3EF00F01904D8A48C
:1001B000DCEF00F0DEEF00F0E3EF00F0000E196E70
:1001C000000E8AEC0FF0F2A6E8EF00F0EAEF00F084
:1001D00005EF01F0F2A0EFEF00F0F1EF00F005EF16
:1001E00001F081ACF6EF00F0F8EF00F005EF01F060
:1001F0001950D8A4FEEF00F000EF01F005EF01F078
:10020000010E196E010E8AEC0FF0F2A60AEF01F052
:100210000CEF01F027EF01F0F2A011EF01F013EF66
:1002200001F027EF01F081BE18EF01F01AEF01F0A5
:1002300027EF01F01804D8A420EF01F022EF01F01D
:1002400027EF01F0000E186E000E7DEC0FF0F2A605
:100250002CEF01F02EEF01F049EF01F0F2A033EFA7
:1002600001F035EF01F049EF01F081AE3AEF01F016
:100270003CEF01F049EF01F01850D8A442EF01F033
:1002800044EF01F049EF01F0010E186E010E7DEC14
:100290000FF046C0FBFF45C0FAFF58921100BBEFBC
:1002A0000DF0FF00FF00FF00FF00FF00FF00FF0058
:10100000003738392F3435362A3132332D43303DCD
:101010002B25690000005550D8A411EF08F013EFFC
:1010200008F018EF08F0000E00017F6F9AEF08F04B
:1010300055C04FF08CEC0DF000017F6F55284F6EBE
:101040008CEC0DF000017F6F000E7E6F000E7D6F47
:1010500055507D25020F4F6E8CEC0DF000017D4B3D
:101060007E2B7EBF3DEF08F07E5109E1080E7D5DCD
:10107000D8A03DEF08F03FEF08F028EF08F0340E5D
:10108000566EF20EE82EFED7562EFCD755C047F00E
:10109000000E486E41EC0AF055C051F0380E526E09
:1010A00019EC0BF00D0E566EFC0EE82EFED7562EE8
:1010B000FCD755C051F0380E526E19EC0BF0640E8F
:1010C000E82EFED755C051F0380E526E19EC0BF0D9
:1010D00000017F6F55C051F0010E526E19EC0BF0FC
:1010E00000017F6F55C051F0020E526E19EC0BF0EB
:1010F00000017F6F55C051F0060E526E19EC0BF0D7
:1011000000017F6F55C051F00C0E526E19EC0BF0C0
:1011100000017F6F55C051F0380E526E19EC0BF084
:1011200000017F6F55C051F0800E526E19EC0BF02C
:1011300000017F6F7F511200010E4A6E4750D8A404
:10114000A4EF08F0A6EF08F00AEF09F0000E4A6ECF
:1011500028EF09F04750D96EDA6A030ED926DF501E
:10116000D8A4B5EF08F0B7EF08F0BAEF08F0F19C9B
:1011700028EF09F04750D96EDA6A030ED926DE044B
:10118000D8A4C5EF08F0C7EF08F0A6EF08F0F18C7F
:1011900028EF09F04750D96EDA6A030ED926DF50DE
:1011A000D8A4D5EF08F0D7EF08F0DAEF08F0F19AFD
:1011B00028EF09F04750D96EDA6A030ED926DE040B
:1011C000D8A4E5EF08F0E7EF08F0A6EF08F0F18A01
:1011D00028EF09F04750D96EDA6A030ED926DF509E
:1011E000D8A4F5EF08F0F7EF08F0FAEF08F0F1985F
:1011F00028EF09F04750D96EDA6A030ED926DE04CB
:10120000D8A405EF09F007EF09F0A6EF08F0F18880
:1012100028EF09F04750D96EDA6A040ED926DF505C
:10122000486E496A4950000AD8B419EF09F0A6EF90
:1012300008F04850000AD8B4AAEF08F0010AD8B460
:10124000CAEF08F0030AD8B4EAEF08F0A6EF08F0F6
:101250004A50120000017C51D8A431EF09F033EF5D
:1012600009F037EF09F0000E806FB6EF09F07CC08F
:101270004FF08CEC0DF00001806F7C294F6E8CECF0
:101280000DF00001806F000E7F6F000E7E6F7C51AD
:101290007E25020F4F6E8CEC0DF000017E4B7F2BF4
:1012A0007FBF5CEF09F07F5109E1040E7E5DD8A09D
:1012B0005CEF09F05EEF09F047EF09F0340E000132
:1012C0007D6FF10EE82EFED77D2FFCD700F000F0E9
:1012D0007CC07AF0380E00017B6F5CEC0DF00D0ED7
:1012E00000017D6FFB0EE82EFED77D2FFCD700F0AE
:1012F00000F07CC07AF0380E00017B6F5CEC0DF0E2
:10130000640EE82EFED77CC07AF0380E00017B6FA9
:101310005CEC0DF07CC07AF0010E00017B6F5CECA0
:101320000DF07CC07AF0020E00017B6F5CEC0DF0DA
:101330007CC07AF0060E00017B6F5CEC0DF07CC087
:101340007AF00C0E00017B6F5CEC0DF07CC07AF043
:10135000280E00017B6F5CEC0DF07CC07AF0800EF3
:1013600000017B6F5CEC0DF00001806F805112007A
:101370004750D8B4BEEF09F0C0EF09F0D0EF09F044
:101380004750D96EDA6ADF30E832E832070B486E30
:10139000070E4864CEEF09F0D0EF09F029EF0AF00C
:1013A000000E4D6E3FEF0AF04750D96EDA6ADF301B
:1013B000E832E832070B486E010E496E482AE3EF27
:1013C00009F0D8904936482EE1EF09F04950FF0A5C
:1013D0004A6E4750D96EDA6ADF50070B020DF350A0
:1013E0002E0FD96EDA6ADECF4BF0DDCF4CF04BC05A
:1013F000D9FF4CC0DAFF4A50DF16010E4D6E3FEFA9
:101400000AF04750D96EDA6ADF30E832E832070B6B
:10141000486E010E496E482A10EF0AF0D8904936FE
:10142000482E0EEF0AF04750D96EDA6ADF50070BEC
:10143000020DF3502E0FD96EDA6ADECF4AF0DDCFFF
:101440004BF04AC0D9FF4BC0DAFF4950DF12FDEF25
:1014500009F04750D96EDA6ADFBC31EF0AF034EF99
:101460000AF0010E35EF0AF0000E000AD8B4D4EFEE
:1014700009F0010AD8B401EF0AF0D0EF09F04D509D
:1014800012004750D8B447EF0AF049EF0AF059EF7D
:101490000AF04750D96EDA6ADF30E832E832070BDB
:1014A000496E070E496457EF0AF059EF0AF0B2EFA0
:1014B0000AF0000E4E6EC7EF0AF04750D96EDA6A96
:1014C000DF30E832E832070B496E010E4A6E492AD6
:1014D0006CEF0AF0D8904A36492E6AEF0AF04A506B
:1014E000FF0A4B6E4750D96EDA6ADF50070B020DC8
:1014F000F350240FD96EDA6ADECF4CF0DDCF4DF019
:101500004CC0D9FF4DC0DAFF4B50DF16010E4E6EB6
:10151000C7EF0AF04750D96EDA6ADF30E832E832B6
:10152000070B496E010E4A6E492A99EF0AF0D890CE
:101530004A36492E97EF0AF04750D96EDA6ADF50E3
:10154000070B020DF350240FD96EDA6ADECF4BF091
:10155000DDCF4CF04BC0D9FF4CC0DAFF4A50DF1250
:1015600086EF0AF04850496E4A6A4A50000AD8B4D9
:10157000BCEF0AF059EF0AF04950000AD8B45DEF09
:101580000AF0010AD8B48AEF0AF059EF0AF04E5077
:1015900012004A50D8A4CFEF0AF0D1EF0AF0F9EFC9
:1015A0000AF0000E4D6E17EF0BF04A50D96EDA6A52
:1015B000DECF47F0DDCF48F039EC0FF04D6E17EF7E
:1015C0000BF04A50D96EDA6ADECF47F0DDCF48F033
:1015D00024EC0FF04D6E17EF0BF04A50D96EDA6A1B
:1015E000DECF47F0DDCF48F00FEC0FF04D6E17EF78
:1015F0000BF04A50D96EDA6A040ED926DF504B6ED2
:101600004C6A4C50000AD8B408EF0BF0D1EF0AF046
:101610004B50000AD8B4D5EF0AF0010AD8B4E1EF74
:101620000AF0030AD8B4EDEF0AF0D1EF0AF04D50FA
:1016300012005150D8A41FEF0BF021EF0BF026EF52
:101640000BF0000E00017A6F5DEF0BF051C047F018
:10165000000E486E41EC0AF0000E00017C6F000E97
:101660007B6F51507B25020F476E7BC053F052C0F9
:1016700054F0532A3EEF0BF0D8905432532E3CEFE7
:101680000BF05450010B486E41EC0AF000017B4B0B
:101690007C2B7CBF55EF0BF07C5109E1080E7B5D84
:1016A000D8A055EF0BF057EF0BF031EF0BF051C016
:1016B0004FF08CEC0EF000017A6F7A511200010E9F
:1016C0004A6E4750D8A467EF0BF069EF0BF07CEF40
:1016D0000BF0000E4A6E9AEF0BF0F28EF28CF2884D
:1016E0009AEF0BF0F28EF28CF0869AEF0BF0F28EFE
:1016F000F28CF0889AEF0BF04750D96EDA6A040E3C
:10170000D926DF50486E496A4950000AD8B48BEF99
:101710000BF069EF0BF04850000AD8B46DEF0BF0F6
:10172000010AD8B472EF0BF0030AD8B477EF0BF0CC
:1017300069EF0BF04A5012004F50D8A4A2EF0BF003
:10174000A4EF0BF0A8EF0BF0000E516ED5EF0BF0ED
:1017500021C052F04F50D96EDA6ADF50070B506E3D
:1017600052505018F80B5018526E4F50D96EDA6A1A
:10177000DF30E832E832070B506E50465046504694
:1017800052505018C70B5018526E529C4F50D96E81
:10179000DA6ADFAC02D0528E01D0529E520E476EF2
:1017A000010E486E41EC0AF0516E515012004F503C
:1017B000D8A4DDEF0BF0DFEF0BF0E3EF0BF0000E42
:1017C000516E10EF0CF020C052F04F50D96EDA6A13
:1017D000DF50070B506E52505018F80B5018526ED5
:1017E0004F50D96EDA6ADF30E832E832070B506EBC
:1017F00050465046504652505018C70B5018526E23
:10180000529C4F50D96EDA6ADFAC02D0528E01D0B2
:10181000529E520E476E000E486E41EC0AF0516E19
:1018200051501200C5EC0FF03F0E526E4BEC0CF015
:10183000576E3E0E526E4BEC0CF0576E740E506E9F
:101840003AEC0EF0576E030E486E4768230E496E51
:1018500064EC0EF0576E23A030EF0CF032EF0CF07A
:1018600036EF0CF010EC0EF023EF0CF023B03BEF52
:101870000CF03DEF0CF023EF0CF02350D8B443EF05
:101880000CF045EF0CF023EF0CF0E6EC0DF023EF3D
:101890000CF04FEF01F05250D8A451EF0CF053EF81
:1018A0000CF057EF0CF0000E546E82EF0CF022C0DB
:1018B00055F05250D96EDA6ADF50070B536E55500F
:1018C0005318F80B5318556E5250D96EDA6ADF3040
:1018D000E832E832070B536E534653465346555091
:1018E0005318C70B5318556E559C5250D96EDA6A6F
:1018F000DFAC02D0558E01D0559E550E4F6E8CEC4C
:101900000DF0546E545012004F50D8A48AEF0CF0D2
:101910008CEF0CF090EF0CF0000E536EBAEF0CF061
:10192000000E556E000E546E4F505424020F476E39
:1019300054C051F050C052F0512AA1EF0CF0D89091
:101940005232512E9FEF0CF05250010B486E41EC79
:101950000AF0536E544A552A55BEB8EF0CF0555054
:1019600009E1040E545CD8A0B8EF0CF0BAEF0CF00B
:1019700094EF0CF053501200010E4A6E4750D8A459
:10198000C4EF0CF0C6EF0CF0D3EF0CF0000E4A6E73
:10199000F1EF0CF0F298F1EF0CF0F096F1EF0CF0A3
:1019A000F098F1EF0CF04750D96EDA6A040ED926A0
:1019B000DF50486E496A4950000AD8B4E2EF0CF093
:1019C000C6EF0CF04850000AD8B4CAEF0CF0010A78
:1019D000D8B4CDEF0CF0030AD8B4D0EF0CF0C6EFBA
:1019E0000CF04A501200010E4A6E4750D8A4FBEF8B
:1019F0000CF0FDEF0CF00AEF0DF0000E4A6E28EF30
:101A00000DF0F29228EF0DF0F09028EF0DF0F0922B
:101A100028EF0DF04750D96EDA6A040ED926DF5050
:101A2000486E496A4950000AD8B419EF0DF0FDEF2D
:101A30000CF04850000AD8B401EF0DF0010AD8B4F8
:101A400004EF0DF0030AD8B407EF0DF0FDEF0CF032
:101A50004A501200010E446E040E415CD8A033EFD0
:101A60000DF035EF0DF039EF0DF0000E446E5AEF2A
:101A70000DF0000EF2BE010E436E4150030BAA6E34
:101A800040C0A9FF42C0A8FFA69EA69CA684F29EC5
:101A9000550EA76EAA0EA76EA682A6B252EF0DF043
:101AA00054EF0DF04DEF0DF0A69443B002D0F29E2E
:101AB00001D0F28E4450120000017A51D8A463EF95
:101AC0000DF065EF0DF069EF0DF0000E566E8AEF28
:101AD0000DF07AC047F0000E486E41EC0AF0566EE9
:101AE0007AC04FF000017B390F0B506E84EC0CF084
:101AF000566E7AC04FF0ABEC0EF0566E7AC04FF0D7
:101B00007BC050F084EC0CF0566E7AC04FF0ABEC1A
:101B10000EF0566E565012004F50D8B492EF0DF0A2
:101B200094EF0DF0A4EF0DF04F50D96EDA6ADF306C
:101B3000E832E832070B506E070E5064A2EF0DF04A
:101B4000A4EF0DF0A8EF0DF0000E516EB9EF0DF0FF
:101B50004FC047F0B8EC09F04FC047F04F50D96E76
:101B6000DA6A000EDFBE010E486E41EC0AF0010E8B
:101B7000516E51501200E00EF66E1E0EF76E000E02
:101B8000F86E00EE60F010EE1AF00900F5CFEEFFEF
:101B9000E550E150FAE1C40EF66E1E0EF76E000E2F
:101BA000F86E00EE24F010EE1CF00900F5CFEEFF09
:101BB000E550E150FAE100EE01F0230EEE6AE8068E
:101BC000FDE158905892000112EF0CF03E0E4F6E5E
:101BD0009CEC0BF0576E3F0E4F6ED7EC0BF0576E30
:101BE000020E546E040E536EBA0EE82EFED7532E1C
:101BF000FCD7542EFAD700F000F03E0E4F6ED7EC13
:101C00000BF0576E020E546E040E536EBA0EE82E91
:101C1000FED7532EFCD7542EFAD700F000F0120056
:101C20003F0E4F6E9CEC0BF0576E3E0E4F6ED7EC96
:101C30000BF0576E020E546E040E536EBA0EE82E61
:101C4000FED7532EFCD7542EFAD700F000F03F0EEB
:101C50004F6ED7EC0BF0576E020E546E040E536E9F
:101C6000BA0EE82EFED7532EFCD7542EFAD700F02A
:101C700000F012005050D8A440EF0EF042EF0EF0EA
:101C800046EF0EF0000E516E62EF0EF050C047F0BE
:101C9000BCEC0CF0516E50C047F0F3EC0CF0516E00
:101CA00050C047F09CEC08F0516E50C04EF04EEC26
:101CB0000FF050C04AF0C9EC0AF050C047F05FEC9A
:101CC0000BF0516E51501200010E4A6E4950D8B4BB
:101CD0006CEF0EF06EEF0EF077EF0EF0040E485C36
:101CE000D8A075EF0EF077EF0EF07BEF0EF0000E40
:101CF0004A6E8AEF0EF04850030BAA6E47C0A9FF48
:101D0000A69EA69CA680000000004950D96EDA6A03
:101D1000A8CFDFFF4A5012004F50D8A492EF0EF028
:101D200094EF0EF098EF0EF0000E506EA9EF0EF04B
:101D30004F28476E010E486E41EC0AF0030EE82E64
:101D4000FED700004F28476E000E486E41EC0AF0A7
:101D5000506E505012004F50D8A4B1EF0EF0B3EFB8
:101D60000EF0B7EF0EF0000E506EC8EF0EF04F28D9
:101D7000476E010E486E41EC0AF0030EE82EFED7C6
:101D800000004F28476E000E486E41EC0AF0506E7E
:101D900050501200F09211501210D8B4D2EF0EF041
:101DA000D4EF0EF0E0EF0EF002D8E0EF0EF00500F9
:101DB000FA6E1150FD6E1250FE6EFF6AFA5012005C
:101DC0001200F09013501410D8B4E9EF0EF0EBEFBE
:101DD0000EF0F7EF0EF002D8F7EF0EF00500FA6EF6
:101DE0001350FD6E1450FE6EFF6AFA50120012007E
:101DF000F29215501610D8B400EF0FF002EF0FF06A
:101E00000EEF0FF002D80EEF0FF00500FA6E15502E
:101E1000FD6E1650FE6EFF6AFA5012001200010E9F
:101E2000496E47504810D8A418EF0FF01AEF0FF082
:101E30001EEF0FF0000E496E22EF0FF047C011F0B9
:101E400048C012F049501200010E496E4750481028
:101E5000D8A42DEF0FF02FEF0FF033EF0FF0000E9F
:101E6000496E37EF0FF047C013F048C014F04950E7
:101E70001200010E496E47504810D8A442EF0FF0EF
:101E800044EF0FF048EF0FF0000E496E4CEF0FF0EB
:101E900047C015F048C016F0495012004E50D8A463
:101EA00054EF0FF056EF0FF05AEF0FF0000E4F6E99
:101EB00060EF0FF04E50020F476EB8EC09F04F6E16
:101EC0004F501200890F8A0F8B0F8C0F8D0F920FBE
:101ED000930F940F950F960F020A121A222A0A02E4
:101EE000800F810F820F830F840F323A030B131B75
:101EF000232B333B761F41010001406EF2904004DA
:101F0000D8A485EF0FF087EF0FF089EF0FF089EF7E
:101F10000FF01200406EF2904004D8A492EF0FF040
:101F200094EF0FF096EF0FF096EF0FF01200406E67
:101F3000F2904004D8A49FEF0FF0A1EF0FF0A3EFB1
:101F40000FF0A3EF0FF01200406EF2904004D8A4FF
:101F5000ACEF0FF0AEEF0FF0B0EF0FF0B0EF0FF00F
:101F60001200380E00017C6F2AEC09F06A0E556EE3
:101F70000BEC08F01200030E416E4068172A17C0E0
:101F800042F02AEC0DF0576E1200B1EC0FF0120087
:020000040030CA
:0E000000FF02191EFF8981FF0FC00FE00F40A5
:00000001FF
