:1000000002EF00F03AEF0BF0FF00FF00FF00FF00EF
:10100000003738392F3435362A3132332D43303DCD
:101010002B002850D8B40FEF08F011EF08F021EFA3
:1010200008F02850D96EDA6ADF30E832E832070B70
:10103000296E070E29641FEF08F021EF08F07AEF00
:1010400008F0000E2E6E90EF08F02850D96EDA6A84
:10105000DF30E832E832070B296E010E2A6E292AAA
:1010600034EF08F0D8902A36292E32EF08F02A50B3
:10107000FF0A2B6E2850D96EDA6ADF50070B020D7B
:10108000F350150FD96EDA6ADECF2CF0DDCF2DF0DC
:101090002CC0D9FF2DC0DAFF2B50DF16010E2E6EAB
:1010A00090EF08F02850D96EDA6ADF30E832E83283
:1010B000070B296E010E2A6E292A61EF08F0D890DD
:1010C0002A36292E5FEF08F02850D96EDA6ADF50F1
:1010D000070B020DF350150FD96EDA6ADECF2BF035
:1010E000DDCF2CF02BC0D9FF2CC0DAFF2A50DF1245
:1010F0004EEF08F02850D96EDA6ADFBC82EF08F0B4
:1011000085EF08F0010E86EF08F0000E000AD8B453
:1011100025EF08F0010AD8B452EF08F021EF08F0EB
:101120002E5012002850D8B498EF08F09AEF08F02B
:10113000AAEF08F02850D96EDA6ADF30E832E832D8
:10114000070B2A6E070E2A64A8EF08F0AAEF08F032
:1011500003EF09F0000E2F6E18EF09F02850D96E3A
:10116000DA6ADF30E832E832070B2A6E010E2B6EA6
:101170002A2ABDEF08F0D8902B362A2EBBEF08F0B4
:101180002B50FF0A2C6E2850D96EDA6ADF50070BFD
:10119000020DF350010FD96EDA6ADECF2DF0DDCFEC
:1011A0002EF02DC0D9FF2EC0DAFF2C50DF16010E15
:1011B0002F6E18EF09F02850D96EDA6ADF30E83266
:1011C000E832070B2A6E010E2B6E2A2AEAEF08F08E
:1011D000D8902B362A2EE8EF08F02850D96EDA6A1C
:1011E000DF50070B020DF350010FD96EDA6ADECF24
:1011F0002CF0DDCF2DF02CC0D9FF2DC0DAFF2B5005
:10120000DF12D7EF08F029502A6E2B6A2B50000A04
:10121000D8B40DEF09F0AAEF08F02A50000AD8B4AC
:10122000AEEF08F0010AD8B4DBEF08F0AAEF08F03F
:101230002F5012003050D8B420EF09F022EF09F0FF
:101240002AEF09F03150D8A428EF09F02AEF09F06D
:101250002EEF09F0000E336E9BEF09F0000E346E96
:10126000000E386E000E376E000E366E000E356EB4
:1012700030503524286E000E296E92EC08F0354A65
:10128000362A36BE4DEF09F0365009E1040E355CC2
:10129000D8A04DEF09F04FEF09F038EF09F03050CA
:1012A0003724286E010E296E92EC08F0000E3A6E7B
:1012B000000E396E30503924040F286E340E296E1A
:1012C0009DEC09F0336E3404D8A469EF09F06BEF9C
:1012D00009F07BEF09F03750040DF350010F39246A
:1012E000326E32C0F6FF100EF76E3150D96EDA6AE8
:1012F0000800F5CFDFFF394A3A2A3ABE89EF09F0F4
:101300003A5009E1040E395CD8A089EF09F08BEF5F
:1013100009F05AEF09F0374A382A38BE99EF09F038
:10132000385009E1040E375CD8A099EF09F09BEF23
:1013300009F034EF09F0335012002850D8B4A3EF6D
:1013400009F0A5EF09F0BDEF09F02950D8B4ABEFD3
:1013500009F0ADEF09F0BDEF09F02850D96EDA6A57
:10136000DF30E832E832070B2A6E070E2A64BBEF43
:1013700009F0BDEF09F0C1EF09F0000E2E6EEDEFA0
:1013800009F02950D96EDA6A2850E16EE26AE73036
:10139000E832E832070B2A6E2850E16EE26AE75025
:1013A000070B020DF3500B0FE16EE26AE6CF2BF054
:1013B000E5CF2CF02BC0E1FF2CC0E2FFE7502D6EF3
:1013C0002A2AE5EF09F0D8902D322A2EE3EF09F012
:1013D0002D50010BDF6E010E2E6E2E501200335079
:1013E000D8A4F5EF09F0F7EF09F0FBEF09F0000ED4
:1013F000346E2FEF0AF0000E366E000E356E33504D
:101400003524306EE0EC0AF0354A362A36BE12EF4B
:101410000AF0365009E1040E355CD8A012EF0AF04C
:1014200014EF0AF0FFEF09F0000E386E000E376E71
:1014300033503724040F286E09EC08F0346E374A15
:10144000382A38BE2DEF0AF0385009E1040E375C17
:10145000D8A02DEF0AF02FEF0AF018EF0AF0345061
:1014600012003050D8A437EF0AF039EF0AF03DEF00
:101470000AF0000E326E6AEF0AF040C033F03050CE
:10148000D96EDA6ADF50070B316E33503118F80B22
:101490003118336E3050D96EDA6ADF30E832E83214
:1014A000070B316E31463146314633503118C70B88
:1014B0003118336E339C3050D96EDA6ADFAC02D00B
:1014C000338E01D0339E330E286E010E296E92ECBE
:1014D00008F0326E325012003050D8A472EF0AF089
:1014E00074EF0AF078EF0AF0000E326EA5EF0AF002
:1014F0003FC033F03050D96EDA6ADF50070B316EDF
:1015000033503118F80B3118336E3050D96EDA6A17
:10151000DF30E832E832070B316E31463146314672
:1015200033503118C70B3118336E339C3050D96E9D
:10153000DA6ADFAC02D0338E01D0339E330E286ED0
:10154000000E296E92EC08F0326E325012003350C9
:10155000D8A4ADEF0AF0AFEF0AF0B3EF0AF0000E37
:10156000356EDEEF0AF041C036F03350D96EDA6ADC
:10157000DF50070B346E36503418F80B3418366EC3
:101580003350D96EDA6ADF30E832E832070B346E56
:1015900034463446344636503418C70B3418366E49
:1015A000369C3350D96EDA6ADFAC02D0368E01D069
:1015B000369E360E306EE0EC0AF0356E3550120075
:1015C0003050D8B4E6EF0AF0E8EF0AF0F8EF0AF08E
:1015D0003050D96EDA6ADF30E832E832070B316E0C
:1015E000070E3164F6EF0AF0F8EF0AF0FCEF0AF0AC
:1015F000000E326E0DEF0BF030C028F009EC08F051
:1016000030C028F03050D96EDA6A000EDFBE010E0D
:10161000296E92EC08F0010E326E3250120072EC1C
:101620000BF01F0E306E420E316E1AEC09F0436E55
:10163000350E4218D8A41FEF0BF021EF0BF028EF66
:101640000BF0270E306E31EC0AF0436E11EF0BF009
:10165000380E4218D8A42FEF0BF031EF0BF011EF3A
:101660000BF0270E306E6CEC0AF0436E11EF0BF0AE
:1016700002EF00F0AA0EF66E160EF76E000EF86E70
:1016800000EE01F010EE27F00900F5CFEEFFE55077
:10169000E150FAE100EE3BF0080EEE6AE806FDE1EB
:1016A000000EF86E00010FEF0BF0890F8A0F8B0F01
:1016B0008C0F8D0F800F810F820F830F840F920F7D
:1016C000930F940F950F960F020A121A626A727A9C
:1016D00003001F0E336EEFEC09F0270E336EA7ECFC
:1016E0000AF0120069EC0BF01200FF00FF00FF008F
:020000040030CA
:0E000000FF02191EFF8981FF0FC00FE00F40A5
:00000001FF
