:1000000002EF00F08BEF09F0FF00FF00FF00FF00A0
:10100000003738392F3435362A3132332D43303DCD
:101010002B002750D8B40FEF08F011EF08F021EFA4
:1010200008F02750D96EDA6ADF30E832E832070B71
:10103000286E070E28641FEF08F021EF08F07AEF02
:1010400008F0000E2D6E90EF08F02750D96EDA6A86
:10105000DF30E832E832070B286E010E296E282AAD
:1010600034EF08F0D8902936282E32EF08F02950B6
:10107000FF0A2A6E2750D96EDA6ADF50070B020D7D
:10108000F350150FD96EDA6ADECF2BF0DDCF2CF0DE
:101090002BC0D9FF2CC0DAFF2A50DF16010E2D6EAF
:1010A00090EF08F02750D96EDA6ADF30E832E83284
:1010B000070B286E010E296E282A61EF08F0D890E0
:1010C0002936282E5FEF08F02750D96EDA6ADF50F4
:1010D000070B020DF350150FD96EDA6ADECF2AF036
:1010E000DDCF2BF02AC0D9FF2BC0DAFF2950DF1249
:1010F0004EEF08F02750D96EDA6ADFBC82EF08F0B5
:1011000085EF08F0010E86EF08F0000E000AD8B453
:1011100025EF08F0010AD8B452EF08F021EF08F0EB
:101120002D5012002750D8B498EF08F09AEF08F02D
:10113000AAEF08F02750D96EDA6ADF30E832E832D9
:10114000070B296E070E2964A8EF08F0AAEF08F034
:1011500003EF09F0000E2E6E18EF09F02750D96E3C
:10116000DA6ADF30E832E832070B296E010E2A6EA8
:10117000292ABDEF08F0D8902A36292EBBEF08F0B7
:101180002A50FF0A2B6E2750D96EDA6ADF50070B00
:10119000020DF350010FD96EDA6ADECF2CF0DDCFED
:1011A0002DF02CC0D9FF2DC0DAFF2B50DF16010E19
:1011B0002E6E18EF09F02750D96EDA6ADF30E83268
:1011C000E832070B296E010E2A6E292AEAEF08F091
:1011D000D8902A36292EE8EF08F02750D96EDA6A1F
:1011E000DF50070B020DF350010FD96EDA6ADECF24
:1011F0002BF0DDCF2CF02BC0D9FF2CC0DAFF2A500A
:10120000DF12D7EF08F02850296E2A6A2A50000A08
:10121000D8B40DEF09F0AAEF08F02950000AD8B4AD
:10122000AEEF08F0010AD8B4DBEF08F0AAEF08F03F
:101230002E5012003250D8A420EF09F022EF09F00E
:1012400026EF09F0000E336E5AEF09F0000E356EEE
:10125000000E346E325034242F6E5CEC09F0344AA8
:10126000352A35BE3DEF09F0355009E1040E345CF6
:10127000D8A03DEF09F03FEF09F02AEF09F0000E8A
:10128000376E000E366E32503624040F276E09EC8E
:1012900008F0336E364A372A37BE58EF09F0375018
:1012A00009E1040E365CD8A058EF09F05AEF09F0B6
:1012B00043EF09F0335012002F50D8B462EF09F019
:1012C00064EF09F074EF09F02F50D96EDA6ADF305D
:1012D000E832E832070B306E070E306472EF09F027
:1012E00074EF09F078EF09F0000E316E89EF09F024
:1012F0002FC027F009EC08F02FC027F02F50D96E2F
:10130000DA6A000EDFBE010E286E92EC08F0010EC4
:10131000316E315012004C0EF66E130EF76E000E49
:10132000F86E00EE01F010EE26F00900F5CFEEFFAA
:10133000E550E150FAE100EE38F0080EEE6AE806FA
:10134000FDE1000EF86E0001B9EF09F0890F8A0F78
:101350008B0F8C0F8D0F800F810F820F830F840FE7
:10136000920F930F940F950F960F020A121A626A4A
:10137000727AC4EC09F0BBEF09F002EF00F01F0E27
:10138000326E1AEC09F01200BFEC09F01200FF00F7
:020000040030CA
:0E000000FF02191EFF8981FF0FC00FE00F40A5
:00000001FF
