:1000000002EF00F00BEF0AF0FF00FF00FF00FF001F
:1010000000002750D8B407EF08F009EF08F019EFF7
:1010100008F02750D96EDA6ADF30E832E832070B81
:10102000286E070E286417EF08F019EF08F072EF2A
:1010300008F0000E2D6E88EF08F02750D96EDA6A9E
:10104000DF30E832E832070B286E010E296E282ABD
:101050002CEF08F0D8902936282E2AEF08F02950D6
:10106000FF0A2A6E2750D96EDA6ADF50070B020D8D
:10107000F350150FD96EDA6ADECF2BF0DDCF2CF0EE
:101080002BC0D9FF2CC0DAFF2A50DF16010E2D6EBF
:1010900088EF08F02750D96EDA6ADF30E832E8329C
:1010A000070B286E010E296E282A59EF08F0D890F8
:1010B0002936282E57EF08F02750D96EDA6ADF500C
:1010C000070B020DF350150FD96EDA6ADECF2AF046
:1010D000DDCF2BF02AC0D9FF2BC0DAFF2950DF1259
:1010E00046EF08F02750D96EDA6ADFBC7AEF08F0D5
:1010F0007DEF08F0010E7EEF08F0000E000AD8B474
:101100001DEF08F0010AD8B44AEF08F019EF08F013
:101110002D5012002750D8B490EF08F092EF08F04D
:10112000A2EF08F02750D96EDA6ADF30E832E832F1
:10113000070B296E070E2964A0EF08F0A2EF08F054
:10114000FBEF08F0000E2E6E10EF09F02750D96E5D
:10115000DA6ADF30E832E832070B296E010E2A6EB8
:10116000292AB5EF08F0D8902A36292EB3EF08F0D7
:101170002A50FF0A2B6E2750D96EDA6ADF50070B10
:10118000020DF350010FD96EDA6ADECF2CF0DDCFFD
:101190002DF02CC0D9FF2DC0DAFF2B50DF16010E29
:1011A0002E6E10EF09F02750D96EDA6ADF30E83280
:1011B000E832070B296E010E2A6E292AE2EF08F0A9
:1011C000D8902A36292EE0EF08F02750D96EDA6A37
:1011D000DF50070B020DF350010FD96EDA6ADECF34
:1011E0002BF0DDCF2CF02BC0D9FF2CC0DAFF2A501A
:1011F000DF12CFEF08F02850296E2A6A2A50000A21
:10120000D8B405EF09F0A2EF08F02950000AD8B4CD
:10121000A6EF08F0010AD8B4D3EF08F0A2EF08F067
:101220002E5012002F50D8A418EF09F01AEF09F031
:101230001EEF09F0000E316E4BEF09F03AC032F0AC
:101240002F50D96EDA6ADF50070B306E32503018EB
:10125000F80B3018326E2F50D96EDA6ADF30E83270
:10126000E832070B306E3046304630463250301888
:10127000C70B3018326E329C2F50D96EDA6ADFAC51
:1012800002D0328E01D0329E320E276E010E286EB1
:101290008AEC08F0316E315012002F50D8A453EF71
:1012A00009F055EF09F059EF09F0000E316E86EFA5
:1012B00009F039C032F02F50D96EDA6ADF50070BCF
:1012C000306E32503018F80B3018326E2F50D96E05
:1012D000DA6ADF30E832E832070B306E30463046EB
:1012E000304632503018C70B3018326E329C2F50B7
:1012F000D96EDA6ADFAC02D0328E01D0329E320E65
:10130000276E000E286E8AEC08F0316E3150120004
:101310003250D8A48EEF09F090EF09F094EF09F065
:10132000000E346EBFEF09F03BC035F03250D96E7D
:10133000DA6ADF50070B336E35503318F80B331869
:10134000356E3250D96EDA6ADF30E832E832070B98
:10135000336E33463346334635503318C70B331894
:10136000356E359C3250D96EDA6ADFAC02D0358EDC
:1013700001D0359E350E2F6EC1EC09F0346E34501D
:1013800012002F50D8B4C7EF09F0C9EF09F0D9EF18
:1013900009F02F50D96EDA6ADF30E832E832070BF5
:1013A000306E070E3064D7EF09F0D9EF09F0DDEFAA
:1013B00009F0000E316EEEEF09F02FC027F001ECBE
:1013C00008F02FC027F02F50D96EDA6A000EDFBE6A
:1013D000010E286E8AEC08F0010E316E31501200B9
:1013E00024EC0AF0260E2F6E12EC09F03C6E020E71
:1013F000376E450E366EAA0EE82EFED7362EFCD777
:10140000372EFAD7260E2F6E4DEC09F03C6EF2EF18
:1014100009F002EF00F0720EF66E140EF76E000E79
:10142000F86E00EE01F010EE26F00900F5CFEEFFA9
:10143000E550E150FAE13B6A3A6A396A386A000ECF
:10144000F86E0001F0EF09F0260E326E88EC09F01C
:101450003C6E250E326E88EC09F03C6E220E2E6E2C
:101460004CEC0AF03C6E1F0E2E6E4CEC0AF03C6EFB
:101470001200890F8A0F8B0F8C0F8D0F800F810F39
:10148000820F830F840F920F930F940F950F960F77
:10149000CB01014301000A022E50D8A452EF0AF0FA
:1014A00054EF0AF058EF0AF0000E2F6E5DEF0AF0CD
:1014B0002EC027F001EC08F02F6E2F501200FF0015
:020000040030CA
:0E000000FF02191EFF8981FF0FC00FE00F40A5
:00000001FF
