:1000000002EF00F03CEF09F0FF00FF00FF00FF00EF
:10100000003738392F3435362A3132332D43303DCD
:101010002B002750D8B40BD02750D96EDA6ADF30B6
:10102000E832E832070B296E070E296451D0000E12
:1010300028D02750D96EDA6ADF30E832E832070B61
:10104000296E010E2A6E292A02D0D8902A36292E1E
:10105000FCD72A50FF0A2B6E2750D96EDA6ADF5070
:10106000070B020DF350010FD96EDA6ADECF2CF0B8
:10107000DDCF2DF02CC0D9FF2DC0DAFF2B50DF16AD
:10108000010E2E6E34D02750D96EDA6ADF30E83286
:10109000E832070B296E010E2A6E292A02D0D89059
:1010A0002A36292EFCD72750D96EDA6ADF50070B73
:1010B000020DF350010FD96EDA6ADECF2BF0DDCFCF
:1010C0002CF02BC0D9FF2CC0DAFF2A50DF12D8D762
:1010D0002850296E2A6A2A50000AD8A4A8D7295075
:1010E000000AD8B4A6D7010AD8B4CDD7A0D72E50BD
:1010F00012002750D8B40BD02750D96EDA6ADF30EF
:10110000E832E832070B286E070E286451D0000E33
:1011100028D02750D96EDA6ADF30E832E832070B80
:10112000286E010E296E282A02D0D8902936282E42
:10113000FCD72950FF0A2A6E2750D96EDA6ADF5091
:10114000070B020DF350150FD96EDA6ADECF2BF0C4
:10115000DDCF2CF02BC0D9FF2CC0DAFF2A50DF16D0
:10116000010E2D6E34D02750D96EDA6ADF30E832A6
:10117000E832070B286E010E296E282A02D0D8907B
:101180002936282EFCD72750D96EDA6ADF50070B94
:10119000020DF350150FD96EDA6ADECF2AF0DDCFDB
:1011A0002BF02AC0D9FF2BC0DAFF2950DF12D8D785
:1011B0002750D96EDA6ADFAC02D0010E01D0000EE2
:1011C000000AD8B4A6D7010AD8B4CDD7A0D72D50DD
:1011D00012003250D8A403D0000E336E28D0000E77
:1011E000356E000E346E325034242F6E19EC09F037
:1011F000344A352A35BEF7D7355004E1040E345C45
:10120000D8A0F1D7000E376E000E366E325036245D
:10121000040F276E79EC08F0336E364A372A37BE52
:10122000F5D7375004E1040E365CD8A0EFD7335021
:1012300012002F50D8B40BD02F50D96EDA6ADF309D
:10124000E832E832070B306E070E306402D0000E31
:1012500010D02FC027F079EC08F02FC027F02F50C6
:10126000D96EDA6A000EDFBE010E286E09EC08F0B6
:10127000010E316E31501200AE0EF66E120EF76E88
:10128000000EF86E00EE01F010EE26F00900F5CF2A
:10129000EEFFE550E150FAE100EE38F0080EEE6A9C
:1012A000E806FDE1000EF86E00016FEF09F0890F0E
:1012B0008A0F8B0F8C0F8D0F800F810F820F830F82
:1012C000840F920F930F940F950F960F020A121A24
:1012D000626A727A1F0E326EE9EC08F0120072EC4C
:1012E00009F0FFD76AEC09F01200FF00FF00FF00D1
:020000040030CA
:0E000000FF02191EFF8981FF0FC00FE00F40A5
:00000001FF
