:1000000002EF00F09EEF09F0FF00FF00FF00FF008D
:1010000000002750D8B40BD02750D96EDA6ADF30F1
:10101000E832E832070B296E070E296451D0000E22
:1010200028D02750D96EDA6ADF30E832E832070B71
:10103000296E010E2A6E292A02D0D8902A36292E2E
:10104000FCD72A50FF0A2B6E2750D96EDA6ADF5080
:10105000070B020DF350010FD96EDA6ADECF2CF0C8
:10106000DDCF2DF02CC0D9FF2DC0DAFF2B50DF16BD
:10107000010E2E6E34D02750D96EDA6ADF30E83296
:10108000E832070B296E010E2A6E292A02D0D89069
:101090002A36292EFCD72750D96EDA6ADF50070B83
:1010A000020DF350010FD96EDA6ADECF2BF0DDCFDF
:1010B0002CF02BC0D9FF2CC0DAFF2A50DF12D8D772
:1010C0002850296E2A6A2A50000AD8A4A8D7295085
:1010D000000AD8B4A6D7010AD8B4CDD7A0D72E50CD
:1010E00012002750D8B40BD02750D96EDA6ADF30FF
:1010F000E832E832070B286E070E286451D0000E44
:1011000028D02750D96EDA6ADF30E832E832070B90
:10111000286E010E296E282A02D0D8902936282E52
:10112000FCD72950FF0A2A6E2750D96EDA6ADF50A1
:10113000070B020DF350150FD96EDA6ADECF2BF0D4
:10114000DDCF2CF02BC0D9FF2CC0DAFF2A50DF16E0
:10115000010E2D6E34D02750D96EDA6ADF30E832B6
:10116000E832070B286E010E296E282A02D0D8908B
:101170002936282EFCD72750D96EDA6ADF50070BA4
:10118000020DF350150FD96EDA6ADECF2AF0DDCFEB
:101190002BF02AC0D9FF2BC0DAFF2950DF12D8D795
:1011A0002750D96EDA6ADFAC02D0010E01D0000EF2
:1011B000000AD8B4A6D7010AD8B4CDD7A0D72D50ED
:1011C00012002F50D8A402D0000E2CD03AC032F01A
:1011D0002F50D96EDA6ADF50070B306E325030185C
:1011E000F80B3018326E2F50D96EDA6ADF30E832E1
:1011F000E832070B306E30463046304632503018F9
:10120000C70B3018326E329C2F50D96EDA6ADFACC1
:1012100002D0328E01D0329E320E276E010E286E21
:1012200001EC08F0316E315012002F50D8A402D0DA
:10123000000E2CD039C032F02F50D96EDA6ADF5050
:10124000070B306E32503018F80B3018326E2F50BA
:10125000D96EDA6ADF30E832E832070B306E30469A
:101260003046304632503018C70B3018326E329C40
:101270002F50D96EDA6ADFAC02D0328E01D0329EA6
:10128000320E276E000E286E01EC08F0316E3150E0
:1012900012003250D8A402D0000E2AD03BC035F044
:1012A0003250D96EDA6ADF50070B336E355033187F
:1012B000F80B3318356E3250D96EDA6ADF30E83207
:1012C000E832070B336E3346334633463550331816
:1012D000C70B3318356E359C3250D96EDA6ADFACE5
:1012E00002D0358E01D0359E350E2F6E7BEC09F085
:1012F000346E345012002F50D8B40BD02F50D96E0A
:10130000DA6ADF30E832E832070B306E070E3064FD
:1013100002D0000E10D02FC027F071EC08F02FC0C3
:1013200027F02F50D96EDA6A000EDFBE010E286E4C
:1013300001EC08F0010E316E31501200C80EF66E4D
:10134000130EF76E000EF86E00EE01F010EE26F0B0
:101350000900F5CFEEFFE550E150FAE13B6A3A6A49
:10136000396A386A000EF86E0001B7EF09F0CFEC69
:1013700009F0260E2F6EE1EC08F03C6E020E376E7F
:10138000450E366EAA0EE82EFED7362EFCD7372E27
:10139000FAD7260E2F6E15EC09F03C6EEAD7260E12
:1013A000326E49EC09F03C6E250E326E49EC09F0C4
:1013B0003C6E220E2E6EF7EC09F03C6E1F0E2E6E68
:1013C000F7EC09F03C6E1200890F8A0F8B0F8C0F1F
:1013D0008D0F800F810F820F830F840F920F930F59
:1013E000940F950F960FCB01014301000A022E5076
:1013F000D8A402D0000E04D02EC027F071EC08F063
:101400002F6E2F501200FF00FF00FF00FF00FF00B3
:020000040030CA
:0E000000FF02191EFF8981FF0FC00FE00F40A5
:00000001FF
